{
  "_format": "hh-sol-artifact-1",
  "contractName": "FestakedWithReward",
  "sourceName": "contracts/FestakedWithReward.sol",
  "abi": [
    {
      "inputs": [
        {
          "internalType": "string",
          "name": "name_",
          "type": "string"
        },
        {
          "internalType": "address",
          "name": "tokenAddress_",
          "type": "address"
        },
        {
          "internalType": "address",
          "name": "rewardTokenAddress_",
          "type": "address"
        },
        {
          "internalType": "uint256",
          "name": "stakingStarts_",
          "type": "uint256"
        },
        {
          "internalType": "uint256",
          "name": "stakingEnds_",
          "type": "uint256"
        },
        {
          "internalType": "uint256",
          "name": "withdrawStarts_",
          "type": "uint256"
        },
        {
          "internalType": "uint256",
          "name": "withdrawEnds_",
          "type": "uint256"
        },
        {
          "internalType": "uint256",
          "name": "stakingCap_",
          "type": "uint256"
        }
      ],
      "stateMutability": "nonpayable",
      "type": "constructor"
    },
    {
      "anonymous": false,
      "inputs": [
        {
          "indexed": true,
          "internalType": "address",
          "name": "token",
          "type": "address"
        },
        {
          "indexed": true,
          "internalType": "address",
          "name": "rewardToken",
          "type": "address"
        },
        {
          "indexed": true,
          "internalType": "address",
          "name": "staker_",
          "type": "address"
        },
        {
          "indexed": false,
          "internalType": "uint256",
          "name": "amount_",
          "type": "uint256"
        },
        {
          "indexed": false,
          "internalType": "uint256",
          "name": "reward_",
          "type": "uint256"
        }
      ],
      "name": "PaidOut",
      "type": "event"
    },
    {
      "anonymous": false,
      "inputs": [
        {
          "indexed": true,
          "internalType": "address",
          "name": "token",
          "type": "address"
        },
        {
          "indexed": true,
          "internalType": "address",
          "name": "staker_",
          "type": "address"
        },
        {
          "indexed": false,
          "internalType": "uint256",
          "name": "requestedAmount_",
          "type": "uint256"
        },
        {
          "indexed": false,
          "internalType": "uint256",
          "name": "stakedAmount_",
          "type": "uint256"
        }
      ],
      "name": "Staked",
      "type": "event"
    },
    {
      "inputs": [
        {
          "internalType": "uint256",
          "name": "withdrawableAmount",
          "type": "uint256"
        }
      ],
      "name": "addMarginalReward",
      "outputs": [],
      "stateMutability": "nonpayable",
      "type": "function"
    },
    {
      "inputs": [
        {
          "internalType": "uint256",
          "name": "rewardAmount",
          "type": "uint256"
        },
        {
          "internalType": "uint256",
          "name": "withdrawableAmount",
          "type": "uint256"
        }
      ],
      "name": "addReward",
      "outputs": [
        {
          "internalType": "bool",
          "name": "",
          "type": "bool"
        }
      ],
      "stateMutability": "nonpayable",
      "type": "function"
    },
    {
      "inputs": [],
      "name": "earlyWithdrawReward",
      "outputs": [
        {
          "internalType": "uint256",
          "name": "",
          "type": "uint256"
        }
      ],
      "stateMutability": "view",
      "type": "function"
    },
    {
      "inputs": [],
      "name": "name",
      "outputs": [
        {
          "internalType": "string",
          "name": "",
          "type": "string"
        }
      ],
      "stateMutability": "view",
      "type": "function"
    },
    {
      "inputs": [],
      "name": "rewardBalance",
      "outputs": [
        {
          "internalType": "uint256",
          "name": "",
          "type": "uint256"
        }
      ],
      "stateMutability": "view",
      "type": "function"
    },
    {
      "inputs": [],
      "name": "rewardSetter",
      "outputs": [
        {
          "internalType": "address",
          "name": "",
          "type": "address"
        }
      ],
      "stateMutability": "view",
      "type": "function"
    },
    {
      "inputs": [],
      "name": "rewardState",
      "outputs": [
        {
          "internalType": "uint256",
          "name": "rewardBalance",
          "type": "uint256"
        },
        {
          "internalType": "uint256",
          "name": "rewardsTotal",
          "type": "uint256"
        },
        {
          "internalType": "uint256",
          "name": "earlyWithdrawReward",
          "type": "uint256"
        }
      ],
      "stateMutability": "view",
      "type": "function"
    },
    {
      "inputs": [],
      "name": "rewardTokenAddress",
      "outputs": [
        {
          "internalType": "address",
          "name": "",
          "type": "address"
        }
      ],
      "stateMutability": "view",
      "type": "function"
    },
    {
      "inputs": [],
      "name": "rewardsTotal",
      "outputs": [
        {
          "internalType": "uint256",
          "name": "",
          "type": "uint256"
        }
      ],
      "stateMutability": "view",
      "type": "function"
    },
    {
      "inputs": [
        {
          "internalType": "uint256",
          "name": "amount",
          "type": "uint256"
        }
      ],
      "name": "stake",
      "outputs": [
        {
          "internalType": "bool",
          "name": "",
          "type": "bool"
        }
      ],
      "stateMutability": "nonpayable",
      "type": "function"
    },
    {
      "inputs": [
        {
          "internalType": "address",
          "name": "staker",
          "type": "address"
        },
        {
          "internalType": "uint256",
          "name": "amount",
          "type": "uint256"
        }
      ],
      "name": "stakeFor",
      "outputs": [
        {
          "internalType": "bool",
          "name": "",
          "type": "bool"
        }
      ],
      "stateMutability": "nonpayable",
      "type": "function"
    },
    {
      "inputs": [
        {
          "internalType": "address",
          "name": "account",
          "type": "address"
        }
      ],
      "name": "stakeOf",
      "outputs": [
        {
          "internalType": "uint256",
          "name": "",
          "type": "uint256"
        }
      ],
      "stateMutability": "view",
      "type": "function"
    },
    {
      "inputs": [],
      "name": "stakeState",
      "outputs": [
        {
          "internalType": "uint256",
          "name": "stakedTotal",
          "type": "uint256"
        },
        {
          "internalType": "uint256",
          "name": "stakingCap",
          "type": "uint256"
        },
        {
          "internalType": "uint256",
          "name": "stakedBalance",
          "type": "uint256"
        },
        {
          "internalType": "uint256",
          "name": "withdrawnEarly",
          "type": "uint256"
        }
      ],
      "stateMutability": "view",
      "type": "function"
    },
    {
      "inputs": [],
      "name": "stakedBalance",
      "outputs": [
        {
          "internalType": "uint256",
          "name": "",
          "type": "uint256"
        }
      ],
      "stateMutability": "view",
      "type": "function"
    },
    {
      "inputs": [],
      "name": "stakedTotal",
      "outputs": [
        {
          "internalType": "uint256",
          "name": "",
          "type": "uint256"
        }
      ],
      "stateMutability": "view",
      "type": "function"
    },
    {
      "inputs": [],
      "name": "stakingCap",
      "outputs": [
        {
          "internalType": "uint256",
          "name": "",
          "type": "uint256"
        }
      ],
      "stateMutability": "view",
      "type": "function"
    },
    {
      "inputs": [],
      "name": "stakingEnds",
      "outputs": [
        {
          "internalType": "uint256",
          "name": "",
          "type": "uint256"
        }
      ],
      "stateMutability": "view",
      "type": "function"
    },
    {
      "inputs": [],
      "name": "stakingStarts",
      "outputs": [
        {
          "internalType": "uint256",
          "name": "",
          "type": "uint256"
        }
      ],
      "stateMutability": "view",
      "type": "function"
    },
    {
      "inputs": [],
      "name": "tokenAddress",
      "outputs": [
        {
          "internalType": "address",
          "name": "",
          "type": "address"
        }
      ],
      "stateMutability": "view",
      "type": "function"
    },
    {
      "inputs": [
        {
          "internalType": "uint256",
          "name": "amount",
          "type": "uint256"
        }
      ],
      "name": "withdraw",
      "outputs": [
        {
          "internalType": "bool",
          "name": "",
          "type": "bool"
        }
      ],
      "stateMutability": "nonpayable",
      "type": "function"
    },
    {
      "inputs": [],
      "name": "withdrawEnds",
      "outputs": [
        {
          "internalType": "uint256",
          "name": "",
          "type": "uint256"
        }
      ],
      "stateMutability": "view",
      "type": "function"
    },
    {
      "inputs": [],
      "name": "withdrawStarts",
      "outputs": [
        {
          "internalType": "uint256",
          "name": "",
          "type": "uint256"
        }
      ],
      "stateMutability": "view",
      "type": "function"
    }
  ],
  "bytecode": "0x60806040523480156200001157600080fd5b5060405162001d9c38038062001d9c8339818101604052810190620000379190620005ca565b878786868686866103e973__$512c7b81a0962270b10e2b98f32ce14066$__63ffa1ad746040518163ffffffff1660e01b815260040160206040518083038186803b1580156200008657600080fd5b505af41580156200009b573d6000803e3d6000fd5b505050506040513d601f19601f82011682018060405250810190620000c19190620006a6565b1462000104576040517f08c379a0000000000000000000000000000000000000000000000000000000008152600401620000fb9062000892565b60405180910390fd5b86600190805190602001906200011c9291906200047a565b50600073ffffffffffffffffffffffffffffffffffffffff168673ffffffffffffffffffffffffffffffffffffffff16141562000190576040517f08c379a000000000000000000000000000000000000000000000000000000000815260040162000187906200084e565b60405180910390fd5b85600260006101000a81548173ffffffffffffffffffffffffffffffffffffffff021916908373ffffffffffffffffffffffffffffffffffffffff1602179055506000851162000217576040517f08c379a00000000000000000000000000000000000000000000000000000000081526004016200020e90620008b4565b60405180910390fd5b428510156200022d574260038190555062000235565b846003819055505b6003548410156200027d576040517f08c379a000000000000000000000000000000000000000000000000000000000815260040162000274906200080a565b60405180910390fd5b83600481905550600454831015620002cc576040517f08c379a0000000000000000000000000000000000000000000000000000000008152600401620002c39062000870565b60405180910390fd5b826005819055506005548210156200031b576040517f08c379a000000000000000000000000000000000000000000000000000000000815260040162000312906200082c565b60405180910390fd5b81600681905550600081101562000369576040517f08c379a00000000000000000000000000000000000000000000000000000000081526004016200036090620008f8565b60405180910390fd5b8060078190555050505050505050600073ffffffffffffffffffffffffffffffffffffffff168673ffffffffffffffffffffffffffffffffffffffff161415620003ea576040517f08c379a0000000000000000000000000000000000000000000000000000000008152600401620003e190620008d6565b60405180910390fd5b85600d60006101000a81548173ffffffffffffffffffffffffffffffffffffffff021916908373ffffffffffffffffffffffffffffffffffffffff16021790555033601160006101000a81548173ffffffffffffffffffffffffffffffffffffffff021916908373ffffffffffffffffffffffffffffffffffffffff160217905550505050505050505062000d13565b8280546200048890620009fe565b90600052602060002090601f016020900481019282620004ac5760008555620004f8565b82601f10620004c757805160ff1916838001178555620004f8565b82800160010185558215620004f8579182015b82811115620004f7578251825591602001919060010190620004da565b5b5090506200050791906200050b565b5090565b5b80821115620005265760008160009055506001016200050c565b5090565b6000620005416200053b8462000943565b6200091a565b9050828152602081018484840111156200055a57600080fd5b62000567848285620009c8565b509392505050565b600081519050620005808162000cdf565b92915050565b600082601f8301126200059857600080fd5b8151620005aa8482602086016200052a565b91505092915050565b600081519050620005c48162000cf9565b92915050565b600080600080600080600080610100898b031215620005e857600080fd5b600089015167ffffffffffffffff8111156200060357600080fd5b620006118b828c0162000586565b9850506020620006248b828c016200056f565b9750506040620006378b828c016200056f565b96505060606200064a8b828c01620005b3565b95505060806200065d8b828c01620005b3565b94505060a0620006708b828c01620005b3565b93505060c0620006838b828c01620005b3565b92505060e0620006968b828c01620005b3565b9150509295985092959890939650565b600060208284031215620006b957600080fd5b6000620006c984828501620005b3565b91505092915050565b6000620006e160338362000979565b9150620006ee8262000ad9565b604082019050919050565b60006200070860358362000979565b9150620007158262000b28565b604082019050919050565b60006200072f60148362000979565b91506200073c8262000b77565b602082019050919050565b60006200075660348362000979565b9150620007638262000ba0565b604082019050919050565b60006200077d601a8362000979565b91506200078a8262000bef565b602082019050919050565b6000620007a460228362000979565b9150620007b18262000c18565b604082019050919050565b6000620007cb601b8362000979565b9150620007d88262000c67565b602082019050919050565b6000620007f260288362000979565b9150620007ff8262000c90565b604082019050919050565b600060208201905081810360008301526200082581620006d2565b9050919050565b600060208201905081810360008301526200084781620006f9565b9050919050565b60006020820190508181036000830152620008698162000720565b9050919050565b600060208201905081810360008301526200088b8162000747565b9050919050565b60006020820190508181036000830152620008ad816200076e565b9050919050565b60006020820190508181036000830152620008cf8162000795565b9050919050565b60006020820190508181036000830152620008f181620007bc565b9050919050565b600060208201905081810360008301526200091381620007e3565b9050919050565b60006200092662000939565b905062000934828262000a34565b919050565b6000604051905090565b600067ffffffffffffffff82111562000961576200096062000a99565b5b6200096c8262000ac8565b9050602081019050919050565b600082825260208201905092915050565b600062000997826200099e565b9050919050565b600073ffffffffffffffffffffffffffffffffffffffff82169050919050565b6000819050919050565b60005b83811015620009e8578082015181840152602081019050620009cb565b83811115620009f8576000848401525b50505050565b6000600282049050600182168062000a1757607f821691505b6020821081141562000a2e5762000a2d62000a6a565b5b50919050565b62000a3f8262000ac8565b810181811067ffffffffffffffff8211171562000a615762000a6062000a99565b5b80604052505050565b7f4e487b7100000000000000000000000000000000000000000000000000000000600052602260045260246000fd5b7f4e487b7100000000000000000000000000000000000000000000000000000000600052604160045260246000fd5b6000601f19601f8301169050919050565b7f46657374616b696e673a207374616b696e6720656e64206d757374206265206160008201527f66746572207374616b696e672073746172747300000000000000000000000000602082015250565b7f46657374616b696e673a207769746864726177456e6473206d7573742062652060008201527f6166746572207769746864726177207374617274730000000000000000000000602082015250565b7f46657374616b696e673a20302061646472657373000000000000000000000000600082015250565b7f46657374616b696e673a207769746864726177537461727473206d757374206260008201527f65206166746572207374616b696e6720656e6473000000000000000000000000602082015250565b7f426164206c696e6b6564206c6962726172792076657273696f6e000000000000600082015250565b7f46657374616b696e673a207a65726f207374616b696e6720737461727420746960008201527f6d65000000000000000000000000000000000000000000000000000000000000602082015250565b7f46657374616b696e673a20302072657761726420616464726573730000000000600082015250565b7f46657374616b696e673a207374616b696e674361702063616e6e6f742062652060008201527f6e65676174697665000000000000000000000000000000000000000000000000602082015250565b62000cea816200098a565b811462000cf657600080fd5b50565b62000d0481620009be565b811462000d1057600080fd5b50565b6110798062000d236000396000f3fe608060405234801561001057600080fd5b50600436106101425760003560e01c806361539de7116100b8578063a694fc3a1161007c578063a694fc3a14610372578063aa5c3ab4146103a2578063b410e2a1146103c0578063bb2d7f3a146103de578063d66692a7146103fc578063eacebf611461041a57610142565b806361539de7146102c75780636d68c7d4146102e557806375c93bb9146103035780638c09a2f9146103335780639d76ea581461035457610142565b80632ee409081161010a5780632ee40908146101ed5780633f7fd60a1461021d578063426233601461023b57806344c370d31461026b578063582c7928146102895780635b9f0016146102a957610142565b806306fdde0314610147578063125f9e331461016557806321b13cdf146101835780632853c542146101a15780632e1a7d4d146101bd575b600080fd5b61014f610438565b60405161015c9190610dae565b60405180910390f35b61016d6104ca565b60405161017a9190610c1a565b60405180910390f35b61018b6104f0565b6040516101989190610df0565b60405180910390f35b6101bb60048036038101906101b69190610b00565b6104f6565b005b6101d760048036038101906101d29190610b00565b61066f565b6040516101e49190610d93565b60405180910390f35b61020760048036038101906102029190610a9b565b61075b565b6040516102149190610d93565b60405180910390f35b610225610770565b6040516102329190610df0565b60405180910390f35b61025560048036038101906102509190610a72565b61077d565b6040516102629190610df0565b60405180910390f35b6102736107c9565b6040516102809190610df0565b60405180910390f35b6102916107cf565b6040516102a093929190610e50565b60405180910390f35b6102b16107e7565b6040516102be9190610df0565b60405180910390f35b6102cf6107f4565b6040516102dc9190610c1a565b60405180910390f35b6102ed61081a565b6040516102fa9190610df0565b60405180910390f35b61031d60048036038101906103189190610b29565b610820565b60405161032a9190610d93565b60405180910390f35b61033b6108da565b60405161034b9493929190610e87565b60405180910390f35b61035c6108f8565b6040516103699190610c1a565b60405180910390f35b61038c60048036038101906103879190610b00565b61091e565b6040516103999190610d93565b60405180910390f35b6103aa610937565b6040516103b79190610df0565b60405180910390f35b6103c8610944565b6040516103d59190610df0565b60405180910390f35b6103e661094a565b6040516103f39190610df0565b60405180910390f35b610404610957565b6040516104119190610df0565b60405180910390f35b610422610964565b60405161042f9190610df0565b60405180910390f35b60606001805461044790610f63565b80601f016020809104026020016040519081016040528092919081815260200182805461047390610f63565b80156104c05780601f10610495576101008083540402835291602001916104c0565b820191906000526020600020905b8154815290600101906020018083116104a357829003601f168201915b5050505050905090565b600d60009054906101000a900473ffffffffffffffffffffffffffffffffffffffff1681565b60055481565b601160009054906101000a900473ffffffffffffffffffffffffffffffffffffffff1673ffffffffffffffffffffffffffffffffffffffff163373ffffffffffffffffffffffffffffffffffffffff1614610586576040517f08c379a000000000000000000000000000000000000000000000000000000000815260040161057d90610dd0565b60405180910390fd5b80600e6002018190555073__$512c7b81a0962270b10e2b98f32ce14066$__633362c3cd600d60009054906101000a900473ffffffffffffffffffffffffffffffffffffffff16600260009054906101000a900473ffffffffffffffffffffffffffffffffffffffff16306105f96107e7565b600e6040518663ffffffff1660e01b815260040161061b959493929190610c35565b60206040518083038186803b15801561063357600080fd5b505af4158015610647573d6000803e3d6000fd5b505050506040513d601f19601f8201168201806040525081019061066b9190610ad7565b5050565b600073__$512c7b81a0962270b10e2b98f32ce14066$__63f3ec689233600260009054906101000a900473ffffffffffffffffffffffffffffffffffffffff16600d60009054906101000a900473ffffffffffffffffffffffffffffffffffffffff16866005546006546004546008600e6040518a63ffffffff1660e01b815260040161070499989796959493929190610c88565b60206040518083038186803b15801561071c57600080fd5b505af4158015610730573d6000803e3d6000fd5b505050506040513d601f19601f820116820180604052508101906107549190610ad7565b9050919050565b600061076833848461096a565b905092915050565b6000600e60020154905090565b6000600860040160008373ffffffffffffffffffffffffffffffffffffffff1673ffffffffffffffffffffffffffffffffffffffff168152602001908152602001600020549050919050565b60075481565b600e8060000154908060010154908060020154905083565b6000600860020154905090565b601160009054906101000a900473ffffffffffffffffffffffffffffffffffffffff1681565b60035481565b600073__$512c7b81a0962270b10e2b98f32ce14066$__6356fb23a98484600d60009054906101000a900473ffffffffffffffffffffffffffffffffffffffff16600e6040518563ffffffff1660e01b81526004016108829493929190610e0b565b60206040518083038186803b15801561089a57600080fd5b505af41580156108ae573d6000803e3d6000fd5b505050506040513d601f19601f820116820180604052508101906108d29190610ad7565b905092915050565b60088060000154908060010154908060020154908060030154905084565b600260009054906101000a900473ffffffffffffffffffffffffffffffffffffffff1681565b60008033905061092f81828561096a565b915050919050565b6000600e60000154905090565b60045481565b6000600e60010154905090565b6000600860000154905090565b60065481565b600073__$512c7b81a0962270b10e2b98f32ce14066$__6314b6043e858585600354600454600754600260009054906101000a900473ffffffffffffffffffffffffffffffffffffffff1660086040518963ffffffff1660e01b81526004016109da989796959493929190610d15565b60206040518083038186803b1580156109f257600080fd5b505af4158015610a06573d6000803e3d6000fd5b505050506040513d601f19601f82011682018060405250810190610a2a9190610ad7565b90509392505050565b600081359050610a4281610ffe565b92915050565b600081519050610a5781611015565b92915050565b600081359050610a6c8161102c565b92915050565b600060208284031215610a8457600080fd5b6000610a9284828501610a33565b91505092915050565b60008060408385031215610aae57600080fd5b6000610abc85828601610a33565b9250506020610acd85828601610a5d565b9150509250929050565b600060208284031215610ae957600080fd5b6000610af784828501610a48565b91505092915050565b600060208284031215610b1257600080fd5b6000610b2084828501610a5d565b91505092915050565b60008060408385031215610b3c57600080fd5b6000610b4a85828601610a5d565b9250506020610b5b85828601610a5d565b9150509250929050565b610b6e81610ee8565b82525050565b610b7d81610ee8565b82525050565b610b8c81610efa565b82525050565b6000610b9d82610ecc565b610ba78185610ed7565b9350610bb7818560208601610f30565b610bc081610fc4565b840191505092915050565b6000610bd8601683610ed7565b9150610be382610fd5565b602082019050919050565b8082525050565b8082525050565b610c0581610f26565b82525050565b610c1481610f26565b82525050565b6000602082019050610c2f6000830184610b65565b92915050565b600060a082019050610c4a6000830188610b74565b610c576020830187610b74565b610c646040830186610b74565b610c716060830185610c0b565b610c7e6080830184610bee565b9695505050505050565b600061012082019050610c9e600083018c610b74565b610cab602083018b610b74565b610cb8604083018a610b74565b610cc56060830189610c0b565b610cd26080830188610c0b565b610cdf60a0830187610c0b565b610cec60c0830186610c0b565b610cf960e0830185610bf5565b610d07610100830184610bee565b9a9950505050505050505050565b600061010082019050610d2b600083018b610b74565b610d38602083018a610b74565b610d456040830189610c0b565b610d526060830188610c0b565b610d5f6080830187610c0b565b610d6c60a0830186610c0b565b610d7960c0830185610b74565b610d8660e0830184610bf5565b9998505050505050505050565b6000602082019050610da86000830184610b83565b92915050565b60006020820190508181036000830152610dc88184610b92565b905092915050565b60006020820190508181036000830152610de981610bcb565b9050919050565b6000602082019050610e056000830184610bfc565b92915050565b6000608082019050610e206000830187610c0b565b610e2d6020830186610c0b565b610e3a6040830185610b74565b610e476060830184610bee565b95945050505050565b6000606082019050610e656000830186610bfc565b610e726020830185610bfc565b610e7f6040830184610bfc565b949350505050565b6000608082019050610e9c6000830187610bfc565b610ea96020830186610bfc565b610eb66040830185610bfc565b610ec36060830184610bfc565b95945050505050565b600081519050919050565b600082825260208201905092915050565b6000610ef382610f06565b9050919050565b60008115159050919050565b600073ffffffffffffffffffffffffffffffffffffffff82169050919050565b6000819050919050565b60005b83811015610f4e578082015181840152602081019050610f33565b83811115610f5d576000848401525b50505050565b60006002820490506001821680610f7b57607f821691505b60208210811415610f8f57610f8e610f95565b5b50919050565b7f4e487b7100000000000000000000000000000000000000000000000000000000600052602260045260246000fd5b6000601f19601f8301169050919050565b7f46657374616b696e673a204e6f7420616c6c6f77656400000000000000000000600082015250565b61100781610ee8565b811461101257600080fd5b50565b61101e81610efa565b811461102957600080fd5b50565b61103581610f26565b811461104057600080fd5b5056fea2646970667358221220e4d084859d894250f2367e2e616b480c976224914e2f207c5a1a5eea4333f00d64736f6c63430008040033",
  "linkReferences": {
    "contracts/Festaked.Library.sol": {
      "FestakedLib": [
        {
          "length": 20,
          "start": 67
        },
        {
          "length": 20,
          "start": 4789
        },
        {
          "length": 20,
          "start": 5014
        },
        {
          "length": 20,
          "start": 5447
        },
        {
          "length": 20,
          "start": 5777
        }
      ]
    }
  },
  "deployedLinkReferences": {
    "contracts/Festaked.Library.sol": {
      "FestakedLib": [
        {
          "length": 20,
          "start": 1426
        },
        {
          "length": 20,
          "start": 1651
        },
        {
          "length": 20,
          "start": 2084
        },
        {
          "length": 20,
          "start": 2414
        }
      ]
    }
  }
}